:020000040800F2
:100000002808002085090008D9090008D909000836
:10001000D9090008D9090008D90900080000000022
:10002000000000000000000000000000D9090008E6
:10003000D909000800000000D9090008DD1B0008EC
:10004000D9090008D9090008D9090008D909000808
:10005000D9090008D9090008D9090008D9090008F8
:10006000D9090008D9090008D9090008D9090008E8
:10007000D9090008D9090008D9090008D9090008D8
:10008000D9090008D9090008D9090008D9090008C8
:10009000D9090008D9090008D9090008D9090008B8
:1000A000D9090008D9090008D9090008D9090008A8
:1000B000D9090008D9090008D9090008D909000898
:1000C000D9090008D9090008D9090008D909000888
:1000D000D9090008D9090008D9090008D909000878
:1000E000D9090008D9090008D9090008D909000868
:1000F000D9090008D9090008D9090008D909000858
:10010000D9090008D9090008D9090008D909000847
:10011000D9090008D9090008D9090008D909000837
:10012000D9090008D9090008D9090008D909000827
:10013000D9090008D9090008D9090008D909000817
:10014000D9090008D9090008D9090008D909000807
:10015000D9090008D9090008D9090008D9090008F7
:10016000D9090008D9090008D9090008D9090008E7
:10017000D9090008D9090008D9090008D9090008D7
:10018000D9090008D9090008D9090008D9090008C7
:10019000D9090008D9090008D9090008D9090008B7
:1001A000D9090008D9090008D909000880B582B02A
:1001B00000AF78607B684B4A934208D1012101204F
:1001C00001F06CF80021012001F068F886E07B68FE
:1001D000454A934208D10121022001F05FF8002135
:1001E000022001F05BF879E07B68404A934208D135
:1001F0000121042001F052F80021042001F04EF802
:100200006CE07B683A4A934208D10121082001F052
:1002100045F80021082001F041F85FE07B68354A8D
:10022000934208D10121102001F038F8002110205C
:1002300001F034F852E07B682F4A934208D1012143
:10024000202001F02BF80021202001F027F845E0C4
:100250007B682A4A934208D10121402001F01EF810
:100260000021402001F01AF838E07B68244A9342CC
:1002700008D10121802001F011F80021802001F037
:100280000DF82BE07B681F4A93420AD101214FF4FD
:10029000807001F003F800214FF4807000F0FEFF41
:1002A0001CE07B68184A93420AD101214FF4007088
:1002B00000F0F4FF00214FF4007000F0EFFF0DE0BC
:1002C0007B68124A934209D101214FF4806000F00B
:1002D000E5FF00214FF4806000F0E0FF00BF083729
:1002E000BD4680BD000002400004024000080240FC
:1002F000000C0240001002400014024000180240AE
:10030000001C02400020024000240240002802405D
:1003100080B487B000AF7860396000237B61002330
:100320003B610023FB6000237B6176E001227B6957
:1003300002FA03F33B613B681A683B691340FB60B8
:10034000FA683B699A4265D17B681A687B695B00F1
:10035000032101FA03F3DB431A407B681A607B68D0
:100360001A683B681B7919467B695B0001FA03F345
:100370001A437B681A603B681B79012B03D03B68EA
:100380001B79022B2ED17B689A687B695B00032165
:1003900001FA03F3DB431A407B689A607B689A6832
:1003A0003B685B7919467B695B0001FA03F31A43EA
:1003B0007B689A607B685A687B699BB21946012307
:1003C0008B40DB431A407B685A607B685B683A6805
:1003D000927911467A6992B201FA02F292B21A4304
:1003E0007B685A607B68DA687B699BB25B0003219B
:1003F00001FA03F3DB431A407B68DA607B68DA6852
:100400003B68DB7919467B695B0001FA03F31A4309
:100410007B68DA607B6901337B617B690F2B85D94F
:1004200000BF1C37BD4680BC704700BF80B483B09E
:1004300000AF78607B684FF6FF721A607B6800221D
:100440001A717B6800225A717B6800229A717B685E
:100450000022DA7100BF0C37BD4680BC704700BF78
:1004600080B485B000AF78600B467B804FF480335A
:10047000FB607A88FB681343FB60FA687B68DA618B
:100480007A887B68DA61FA687B68DA617B68DB69A5
:10049000FB607B68DB69FB6000BF1437BD4680BC36
:1004A000704700BF80B485B000AF78600B467B809A
:1004B0000023FB737B681A697B881340002B02D0F2
:1004C0000123FB7301E00023FB73FB7B1846143709
:1004D000BD4680BC704700BF80B483B000AF786079
:1004E0007B681B699BB218460C37BD4680BC7047C1
:1004F00080B485B000AF78600B467B800023FB732F
:100500007B685A697B881340002B02D00123FB7360
:1005100001E00023FB73FB7B18461437BD4680BC0B
:10052000704700BF80B483B000AF78607B685B69C0
:100530009BB218460C37BD4680BC704780B483B070
:1005400000AF78600B467B807B687A881A8300BF97
:100550000C37BD4680BC704780B483B000AF786074
:100560000B467B807B687A885A8300BF0C37BD4678
:1005700080BC704780B483B000AF78600B467B804E
:1005800013467B707B78002B03D07B687A881A83B4
:1005900002E07B687A885A8300BF0C37BD4680BC76
:1005A000704700BF80B483B000AF78600B467B809B
:1005B0007A887B685A6100BF0C37BD4680BC7047A3
:1005C00080B483B000AF78600B467B807B685A694B
:1005D0007B885A407B685A6100BF0C37BD4680BC9F
:1005E000704700BF80B485B000AF78600B467B8059
:1005F00013467B700023FB600023BB607A787B8806
:1006000003F007039B0002FA03F3FB607B88DB081F
:100610009BB218467B88DB089BB21A467B6808327F
:1006200053F822207B8803F007039B000F2101FA77
:1006300003F3DB4302EA03017B6800F1080243F89D
:1006400022107B88DB089BB21A467B68083253F87D
:100650002220FB681343BB607B88DB089BB21A46F1
:100660007B680832B96843F8221000BF1437BD46D2
:1006700080BC704780B582B000AF134A124B1B6B31
:1006800043F0030313633B4600221A605A604FF4A1
:1006900070633B600023BB7101233B7103237B71BB
:1006A0003B4619460948FFF733FE4FF470433B6061
:1006B0003B4619460648FFF72BFE00F00BF800BF3B
:1006C0000837BD4680BD00BF003802400000024030
:1006D0000004024080B500AF4FF480711348FFF76B
:1006E0003BFF4FF400711148FFF736FF4FF4806174
:1006F0000E48FFF731FF4FF400610C48FFF72CFF65
:100700004FF480510A48FFF727FF4FF40051084883
:10071000FFF722FF4FF480410548FFF71DFF4FF41C
:1007200000410348FFF718FF00BF80BD00000240F2
:100730000004024080B500AFFFF7CCFF4FF400711A
:100740000948FFF7FBFE4FF480610748FFF7F6FE0C
:100750004FF400510548FFF7F1FE4FF40041034804
:10076000FFF7ECFE00BF80BD000002400004024025
:1007700080B500AFFFF7AEFF4FF480710948FFF777
:10078000DDFE4FF400610748FFF7D8FE4FF48051BB
:100790000548FFF7D3FE4FF480410348FFF7CEFE34
:1007A00000BF80BD000002400004024080B500AFE1
:1007B000FFF790FF4FF480710948FFF7BFFE4FF439
:1007C00080610748FFF7BAFE4FF400510548FFF774
:1007D000B5FE4FF480410348FFF7B0FE00BF80BD77
:1007E000000002400004024080B500AFFFF772FF36
:1007F0004FF400710948FFF7A1FE4FF4006107486C
:10080000FFF79CFE4FF480510548FFF797FE4FF429
:1008100000410348FFF792FE00BF80BD0000024088
:100820000004024080B500AFFFF754FF4FF40071A1
:100830000448FFF783FE4FF400410348FFF77EFEB4
:1008400000BF80BD000002400004024080B500AF40
:10085000FFF740FF4FF480610448FFF76FFE4FF44D
:1008600000510348FFF76AFE00BF80BD0000024050
:100870000004024080B500AFFFF72CFF4FF4006189
:100880000448FFF75BFE4FF480510348FFF756FE24
:1008900000BF80BD000002400004024080B500AFF0
:1008A000FFF718FF4FF480710448FFF747FE4FF43D
:1008B00080410348FFF742FE00BF80BD00000240B8
:1008C0000004024080B500AFFFF704FF4FF48071D1
:1008D0000948FFF733FE4FF480610748FFF72EFE0B
:1008E0004FF480510548FFF729FE4FF400410348BB
:1008F000FFF724FE00BF80BD00000240000402405C
:1009000080B500AFFFF7E6FE4FF400710948FFF72E
:1009100015FE4FF400610748FFF710FE4FF4005139
:100920000548FFF70BFE4FF480410348FFF706FE32
:1009300000BF80BD000002400004024080B500AF4F
:10094000FFF7C8FE4FF480710448FFF7F7FD4FF43E
:1009500080610248FFF7F2FD00BF80BD0000024049
:1009600080B500AFFFF7B6FE4FF400710448FFF703
:10097000E5FD4FF400610248FFF7E0FD00BF80BDD8
:100980000000024080B582B000AF104B7B60104B7E
:100990003B6007E03B681A1D3A607A68111D796078
:1009A00012681A603B680B4A9342F3D30C480D4916
:1009B0004FF000028842B8BF40F8042BFADB01F088
:1009C00053F900BF0837BD4680BD00BFC41C0008F6
:1009D000000000202400002080B400AFFEE70000EB
:1009E000240000202800002080B400AF164A164BD7
:1009F0001B6843F001031360134B00229A60124AF4
:100A0000114B1B6823F0A85323F4102313600E4BE3
:100A10000E4A5A600C4B0E4AC3F884200A4B0D4A0A
:100A2000C3F88820084A084B1B6823F4802313600E
:100A3000054B0022DA60044B0022C3F88C2000BF73
:100A4000BD4680BC704700BF003802401030002413
:100A5000003000200030002480B483B000AF034693
:100A6000FB71054B00221A70034AFB79137000BF1B
:100A70000C37BD4680BC70470238024080B582B05A
:100A800000AF00233B600023FB710023BB713120CA
:100A900000F056FD0346BB713B6801333B603B6889
:100AA000B3F5A04F02D0BB79002BF0D0312000F07D
:100AB00047FD0346002B02D00123FB7101E0002318
:100AC000FB71FB7918460837BD4680BD80B485B000
:100AD00000AF0346FB710023FB600A4B1B68FB6001
:100AE000FB6823F0F803FB60FB79DB00FA68134333
:100AF000FB60044AFB68136000BF1437BD4680BC2E
:100B0000704700BF0038024080B483B000AF034696
:100B1000FB71044AFB79136000BF0C37BD4680BCF3
:100B2000704700BF0000474280B483B000AF034667
:100B3000FB710C4B00221A700A4B00221A70FB79D1
:100B4000012B02D0042B04D007E0064B01221A70BF
:100B500003E0044B05221A7000BF00BF0C37BD46EE
:100B600080BC70477038024080B483B000AF034649
:100B7000FB71044AFB79136000BF0C37BD4680BC93
:100B8000704700BF800E474280B485B000AFF86068
:100B9000B9607A603B600A497B689A01BB681A4376
:100BA0003B685B08013B1B041A43FB681A43BB69A3
:100BB0001B0613434B6000BF1437BD4680BC704713
:100BC0000038024080B483B000AF0346FB71044A92
:100BD000FB79136000BF0C37BD4680BC704700BF77
:100BE0006000474280B485B000AFF860B9607A60B9
:100BF0000749FB689A01BB681B061A437B681B0701
:100C00001343C1F8843000BF1437BD4680BC704721
:100C10000038024080B483B000AF0346FB71044A41
:100C2000FB79136000BF0C37BD4680BC704700BF26
:100C30006800474280B485B000AFF860B9607A6060
:100C40000749FB689A01BB681B061A437B681B07B0
:100C50001343C1F8883000BF1437BD4680BC7047CD
:100C60000038024080B483B000AF0346FB71044AF1
:100C7000FB79136000BF0C37BD4680BC704700BFD6
:100C80007000474280B483B000AF0346FB71044A52
:100C9000FB79136000BF0C37BD4680BC704700BFB6
:100CA0004C00474280B485B000AF786039600023C3
:100CB000FB600A4B9B68FB60FB6823F0EC63FB6006
:100CC0007A683B681343FA681343FB60034AFB6886
:100CD000936000BF1437BD4680BC704700380240A7
:100CE00080B485B000AF786039600023FB600A4BA8
:100CF0009B68FB60FB6823F07843FB607A683B6885
:100D00001343FA681343FB60034AFB68936000BF18
:100D10001437BD4680BC70470038024080B485B0AF
:100D200000AF78600023FB60094B9B68FB60FB68A9
:100D300023F00303FB60FA687B681343FB60044AFB
:100D4000FB68936000BF1437BD4680BC704700BF8E
:100D50000038024080B400AF044B9B68DBB203F064
:100D60000C03DBB21846BD4680BC70470038024019
:100D700080B485B000AF78600023FB60094B9B68AE
:100D8000FB60FB6823F0F003FB60FA687B681343A9
:100D9000FB60044AFB68936000BF1437BD4680BC0B
:100DA000704700BF0038024080B485B000AF786063
:100DB0000023FB60094B9B68FB60FB6823F4E05356
:100DC000FB60FA687B681343FB60044AFB6893602E
:100DD00000BF1437BD4680BC704700BF00380240DA
:100DE00080B485B000AF78600023FB60094B9B683E
:100DF000FB60FB6823F46043FB607B68DB00FA6800
:100E00001343FB60034AFB68936000BF1437BD4681
:100E100080BC70470038024080B489B000AF786071
:100E20000023BB6100237B610023FB6102233B6144
:100E30000023FB600223BB60484B9B6803F00C035C
:100E4000BB61BB69042B07D0082B09D0002B3FD115
:100E50007B68434A1A603FE07B68424A1A603BE085
:100E60003E4B5B6803F480039B0DFB603B4B5B6870
:100E700003F03F03BB60FB68002B0DD0394ABB6811
:100E8000B2FBF3F2354B596847F6C0730B409B0930
:100E900003FB02F3FB610CE0314ABB68B2FBF3F2E7
:100EA0002E4B596847F6C0730B409B0903FB02F3B6
:100EB000FB612A4B5B6803F440331B0C01335B007E
:100EC0003B61FA693B69B2FBF3F27B681A6003E0AD
:100ED0007B68234A1A6000BF204B9B6803F0F00335
:100EE000BB61BB691B09BB611F4ABB6913441B780B
:100EF000DBB27B617B681A687B69DA407B685A6089
:100F0000164B9B6803F4E053BB61BB699B0ABB6152
:100F1000154ABB6913441B78DBB27B617B685A6856
:100F20007B69DA407B689A600C4B9B6803F46043F2
:100F3000BB61BB695B0BBB610B4ABB6913441B788C
:100F4000DBB27B617B685A687B69DA407B68DA6078
:100F500000BF2437BD4680BC704700BF0038024048
:100F60000024F40000127A000000002080B485B054
:100F700000AF78600023FB607B6803F44073B3F537
:100F8000407F11D10F4B9B68FB60FB6823F4F81383
:100F9000FB607B6823F0704323F44073FA681343CB
:100FA000FB60084AFB6893600649064B1A6F7B6832
:100FB000C3F30B0313430B6700BF1437BD4680BC5C
:100FC000704700BF0038024080B483B000AF0346D2
:100FD000FB71044AFB79136000BF0C37BD4680BC2F
:100FE000704700BF3C0E474280B483B000AF034659
:100FF000FB71044AFB79136000BF0C37BD4680BC0F
:10100000704700BF400E474280B483B000AF7860A5
:10101000034A7B68136000BF0C37BD4680BC704735
:101020005C01474280B485B000AF78600023FB606C
:101030000A4BD3F88C30FB60FB6823F01F03FB6086
:101040007B68013BFA681343FB60044AFB68C2F803
:101050008C3000BF1437BD4680BC7047003802405A
:1010600080B485B000AF78600023FB600B4BD3F8F1
:101070008C30FB60FB6823F4F853FB607B68013B1A
:101080001B02FA681343FB60044AFB68C2F88C3009
:1010900000BF1437BD4680BC704700BF0038024017
:1010A00080B485B000AF78600023FB600A4BD3F8B2
:1010B0008C30FB60FB6823F44013FB60FA687B68AC
:1010C0001343FB60044AFB68C2F88C3000BF14373E
:1010D000BD4680BC704700BF0038024080B485B078
:1010E00000AF78600023FB600A4BD3F88C30FB60C4
:1010F000FB6823F44003FB60FA687B681343FB60E2
:10110000044AFB68C2F88C3000BF1437BD4680BC6F
:10111000704700BF0038024080B485B000AF7860EF
:101120000023FB600A4BD3F88C30FB60FB6823F490
:101130004033FB60FA687B681343FB60044AFB683A
:10114000C2F88C3000BF1437BD4680BC704700BF6A
:101150000038024080B483B000AF7860034A7B68F7
:10116000136000BF0C37BD4680BC7047E01147429A
:1011700080B483B000AF78600B46FB70FB78002B27
:1011800006D00949084B1A6B7B6813430B6306E0D2
:101190000549054B1A6B7B68DB4313400B6300BFAB
:1011A0000C37BD4680BC70470038024080B483B025
:1011B00000AF78600B46FB70FB78002B06D0094926
:1011C000084B5A6B7B6813434B6306E00549054B9C
:1011D0005A6B7B68DB4313404B6300BF0C37BD4643
:1011E00080BC70470038024080B483B000AF7860A4
:1011F0000B46FB70FB78002B06D00949084B9A6B15
:101200007B6813438B6306E00549054B9A6B7B684B
:10121000DB4313408B6300BF0C37BD4680BC704777
:101220000038024080B483B000AF78600B46FB709A
:10123000FB78002B06D00949084B1A6C7B681343D6
:101240000B6406E00549054B1A6C7B68DB431340D1
:101250000B6400BF0C37BD4680BC704700380240AD
:1012600080B483B000AF78600B46FB70FB78002B36
:1012700006D00949084B5A6C7B6813434B6406E05F
:101280000549054B5A6C7B68DB4313404B6400BF38
:101290000C37BD4680BC70470038024080B483B034
:1012A00000AF78600B46FB70FB78002B06D0094935
:1012B000084B1A697B6813430B6106E00549054B2F
:1012C0001A697B68DB4313400B6100BF0C37BD46D6
:1012D00080BC70470038024080B483B000AF7860B3
:1012E0000B46FB70FB78002B06D00949084B5A6966
:1012F0007B6813434B6106E00549054B5A697B68DF
:10130000DB4313404B6100BF0C37BD4680BC7047C8
:101310000038024080B483B000AF78600B46FB70A9
:10132000FB78002B06D00949084B9A697B68134368
:101330008B6106E00549054B9A697B68DB431340E6
:101340008B6100BF0C37BD4680BC7047003802403F
:1013500080B483B000AF78600B46FB70FB78002B45
:1013600006D00949084B1A6A7B6813430B6206E0F2
:101370000549054B1A6A7B68DB4313400B6200BFCB
:101380000C37BD4680BC70470038024080B483B043
:1013900000AF78600B46FB70FB78002B06D0094944
:1013A000084B5A6A7B6813434B6206E00549054BBC
:1013B0005A6A7B68DB4313404B6200BF0C37BD4663
:1013C00080BC70470038024080B483B000AF7860C2
:1013D0000B46FB70FB78002B06D00949084B1A6DB1
:1013E0007B6813430B6506E00549054B1A6D7B6866
:1013F000DB4313400B6500BF0C37BD4680BC704714
:101400000038024080B483B000AF78600B46FB70B8
:10141000FB78002B06D00949084B5A6D7B681343B3
:101420004B6506E00549054B5A6D7B68DB4313406D
:101430004B6500BF0C37BD4680BC7047003802408A
:1014400080B483B000AF78600B46FB70FB78002B54
:1014500006D00949084B9A6D7B6813438B6506E0FB
:101460000549054B9A6D7B68DB4313408B6500BFD4
:101470000C37BD4680BC70470038024080B483B052
:1014800000AF78600B46FB70FB78002B06D0094953
:10149000084B1A6E7B6813430B6606E00549054B43
:1014A0001A6E7B68DB4313400B6600BF0C37BD46EA
:1014B00080BC70470038024080B483B000AF7860D1
:1014C0000B46FB70FB78002B06D00949084B5A6E7F
:1014D0007B6813434B6606E00549054B5A6E7B68F3
:1014E000DB4313404B6600BF0C37BD4680BC7047E2
:1014F0000038024080B483B000AF03460A46FB7157
:101500001346BB71BB79002B08D00C490B4B1B78E1
:10151000DAB2FB791343DBB20B7009E00749074BE2
:101520001B78DAB2FB79DB43DBB21340DBB20B7022
:1015300000BF0C37BD4680BC704700BF0D3802406D
:1015400080B487B000AF0346FB710023FB6000232B
:101550007B610023FB74FB795B09DBB2FB60FB68FA
:10156000012B03D1124B1B687B6109E0FB68022B46
:1015700003D10F4B1B6F7B6102E00D4B5B6F7B61F7
:10158000FB7903F01F03FB607A69FB6822FA03F31F
:1015900003F00103002B02D00123FB7401E00023C0
:1015A000FB74FB7C18461C37BD4680BC704700BFEF
:1015B0000038024080B400AF044A044B5B6F43F034
:1015C0008073536700BFBD4680BC7047003802403F
:1015D00080B485B000AF0346FB710023FB73084B5A
:1015E000DA68FB791340002B02D00123FB7301E082
:1015F0000023FB73FB7B18461437BD4680BC704745
:101600000038024080B483B000AF0346FB71044A47
:10161000FB79137000BF0C37BD4680BC704700BF1C
:101620000E38024080B500AF124A124B1B6843F0DF
:10163000010313600F4B00229A600E4A0D4B1B688A
:1016400023F0847323F4803313600A4B0A4A5A60F0
:10165000084A084B1B6823F480231360054B0022C3
:10166000DA6000F089F8054B4FF000629A6000BF25
:1016700080BD00BF003802401030002400ED00E0C3
:1016800080B487B000AF00233B6100237B6102235D
:10169000FB600023BB6002237B60324B9B6803F03E
:1016A0000C033B613B69042B07D0082B09D0002BAE
:1016B0003FD12D4B2D4A1A603FE02B4B2C4A1A602C
:1016C0003BE0284B5B6803F480039B0DBB60254B1C
:1016D0005B6803F03F037B60BB68002B0DD0244A9E
:1016E0007B68B2FBF3F21F4B596847F6C0730B409F
:1016F0009B0903FB02F37B610CE01C4A7B68B2FB95
:10170000F3F2184B596847F6C0730B409B0903FB73
:1017100002F37B61134B5B6803F440331B0C013312
:101720005B00FB607A69FB68B2FBF3F30E4A13605F
:1017300003E00D4B0D4A1A6000BF0A4B9B6803F093
:10174000F0031B090B4AD35CDBB23B61064B1A6802
:101750003B6922FA03F3044A136000BF1C37BD46FD
:1017600080BC704700380240100000200024F400C4
:1017700000127A001400002080B483B000AF002370
:101780007B6000233B60424A414B1B6843F480333B
:1017900013603F4B1B6803F400333B607B680133ED
:1017A0007B603B68002B03D17B68B3F5A04FF0D181
:1017B000374B1B6803F40033002B02D001233B603E
:1017C00001E000233B603B68012B5CD1304A304B89
:1017D0001B6C43F0805313642E4A2E4B1B6843F45A
:1017E000404313602A4A2A4B9B689360284A284B3F
:1017F0009B6843F400439360254A254B9B6843F460
:10180000A0539360224B244A5A60214A204B1B6804
:1018100043F08073136000BF1D4B1B6803F000731F
:10182000002BF9D01B4A1B4B1B6843F48033136019
:1018300000BF184B5B6803F48033002BF9D0154AC6
:10184000144B1B6843F40033136000BF114B5B68FB
:1018500003F40033002BF9D0104B40F205721A60EC
:101860000B4A0B4B9B6823F003039360084A084B19
:101870009B6843F00203936000BF054B9B6803F035
:101880000C03082BF9D100BF0C37BD4680BC704754
:101890000038024000700040085A4007003C0240F7
:1018A00080B483B000AF03463960FB7197F907300D
:1018B000002B0BDA0D49FB7903F00F03043B3A6868
:1018C000D2B21201D2B20B441A7609E0084997F954
:1018D00007303A68D2B21201D2B20B4483F8002327
:1018E00000BF0C37BD4680BC704700BF00ED00E074
:1018F00000E100E080B582B000AF78607B68013B1A
:10190000B3F1807F01D301230FE00A4A7B68013BDA
:1019100053600F214FF0FF30FFF7C2FF054B00224D
:101920009A60044B07221A60002318460837BD4608
:1019300080BD00BF10E000E080B582B000AF104A6B
:101940000F4B1B6B43F0040313633B4600221A60EA
:101950005A600023BB7101233B7103237B71062373
:101960003B603B4619460748FEF7D2FC00F038F8CA
:1019700000F07AF800F018F800BF0837BD4680BDC7
:10198000003802400008024080B483B000AF034634
:10199000FB80044AFB88D36300BF0C37BD4680BC84
:1019A000704700BF0004004080B500AF022104482A
:1019B000FEF7D2FD04210248FEF7CEFD00BF80BD38
:1019C0000008024080B500AF02210448FEF7B6FDD2
:1019D00004210248FEF7B2FD00BF80BD00080240AE
:1019E00080B400AF1D4A1D4B1B6C43F0020313640F
:1019F0001A4A1A4B1B6B43F004031363184A184B23
:101A00001B6843F002031360154A154B1B6A43F031
:101A100002031362134B40F2E7321A85114B632223
:101A2000DA62104A0F4B9B8B9BB243F060039BB270
:101A300093830C4A0B4B1B8C9BB243F480739BB279
:101A40001384084A074B1B889BB243F001039BB2E7
:101A5000138000BFBD4680BC704700BF0038024005
:101A6000000802400004004080B400AF1D4A1D4B36
:101A70001B6C43F4002313641A4A1A4B1B6B43F08C
:101A800001031363184A184B1B6843F002031360E9
:101A9000154A154B1B6A43F008031362124A124B96
:101AA0001B6843F0080313600F4A0F4B1B6A43F097
:101AB000800313620D4A0E4B1B680E49A1FB0313F2
:101AC0005B0B9BB21381094A084B9B899BB243F481
:101AD000005343F00C039BB2938100BFBD4680BC12
:101AE000704700BF0038024000000240004C004038
:101AF00010000020D34D621080B483B000AF0346C5
:101B0000FB7100BF074B1B889BB203F08003002BC7
:101B1000F8D0044BFA7992B29A8000BF0C37BD46D8
:101B200080BC7047004C004080B400AF00BF074B42
:101B30001B889BB203F02003002BF8D0034B9B883B
:101B40009BB2DBB21846BD4680BC7047004C0040DB
:101B500080B500AF00F002F800BF80BD80B400AFD8
:101B60001A4A1A4B1B6C43F480131364174A174B21
:101B70001B6B43F004031363154A154B1B6843F0BA
:101B800000731360124A124B5B6A43F400235362E2
:101B9000104A104B1B6843F0200313600D4A0D4B95
:101BA0001B6A43F4006313620B4B40F283621A8199
:101BB000094A094B9B899BB243F4005343F00C0341
:101BC0009BB2938100BFBD4680BC70470038024085
:101BD00000080240000C02400050004080B400AFFA
:101BE000044B1B680133034A136000BFBD4680BC31
:101BF000704700BF2400002080B485B000AF78603B
:101C0000074B1B68FB6000BF054B1A68FB68D21AC4
:101C10007B689A42F8D300BF1437BD4680BC70473A
:101C20002400002080B582B000AF0D4A0C4B1B6B26
:101C300043F0010313633B4600221A605A604023BD
:101C40003B600023BB7101233B7103237B713B4647
:101C500019460448FEF75CFB00BF0837BD4680BD4F
:101C6000003802400000024080B500AFFFF7DAFC08
:101C7000124B1B68124AA2FB03239B091846FFF76D
:101C800039FEFEF7F7FCFFF757FEFFF79BFEFFF765
:101C90005FFF1420FFF778FE4FF47A70FFF7ACFF78
:101CA0006420FFF771FE4FF4FA60FFF7A5FFFFF71E
:101CB0007BFE41F28830FFF79FFFEAE7100000202B
:041CC000D34D62108E
:101CC40000000000010203040102030406070809DE
:101CD4000095BA0A0000000000000000010203049D
:041CE40006070809DE
:0400000508000000EF
:00000001FF
