:020000040800F2
:1000000018080020AD0100080902000809020008D4
:1000100009020008090200080902000800000000A7
:1000200000000000000000000000000009020008BD
:100030000902000800000000090200086904000825
:100040000902000809020008090200080902000864
:100050000902000809020008090200080902000854
:100060000902000809020008090200080902000844
:100070000902000809020008090200080902000834
:100080000902000809020008090200080902000824
:100090000902000809020008090200080902000814
:1000A0000902000809020008090200080902000804
:1000B00009020008090200080902000809020008F4
:1000C00009020008090200080902000809020008E4
:1000D00009020008090200080902000809020008D4
:1000E00009020008090200080902000809020008C4
:1000F00009020008090200080902000809020008B4
:1001000009020008090200080902000809020008A3
:100110000902000809020008090200080902000893
:100120000902000809020008090200080902000883
:100130000902000809020008090200080902000873
:100140000902000809020008090200080902000863
:100150000902000809020008090200080902000853
:100160000902000809020008090200080902000843
:100170000902000809020008090200080902000833
:100180000902000809020008090200080902000823
:100190000902000809020008090200080902000813
:1001A00009020008090200080902000880B582B0AF
:1001B00000AF104B7B60104B3B6007E07A68131D6B
:1001C0007B603B68191D396012681A603B680B4AF6
:1001D0009342F3D30A480B494FF000028842B8BF5C
:1001E00040F8042BFADB00F065F900BF0837BD4684
:1001F00080BD00BFA40800080000002014000020FB
:10020000140000201800002080B400AFFEE70000BA
:1002100080B483B000AF03463960FB7197F90730B3
:10022000002B0BDA3B68DAB20C49FB7903F00F03C1
:10023000043B1201D2B20B441A7609E03B68DAB2F1
:10024000074997F907301201D2B20B4483F8002313
:1002500000BF0C37BD4680BC704700BF00ED00E01A
:1002600000E100E080B582B000AF78607B68013BC0
:10027000B3F1807F01D301230FE00A4A7B68013B81
:1002800053600F214FF0FF30FFF7C2FF054B0022F4
:100290009A60044B07221A60002318460837BD46AF
:1002A00080BD00BF10E000E080B582B000AF104B11
:1002B0001B6B0F4A43F0040313633B4600221A6092
:1002C0005A600023BB7101233B7103237B7106231A
:1002D0003B603B461946074800F078F900F038F8D3
:1002E00000F07AF800F018F800BF0837BD4680BD6E
:1002F000003802400008024080B483B000AF0346DB
:10030000FB80044AFB88D36300BF0C37BD4680BC2A
:10031000704700BF0004004080B500AF02210448D0
:1003200000F0F0F90421024800F0ECF900BF80BDB4
:100330000008024080B500AF0221044800F0D4F963
:100340000421024800F0D0F900BF80BD000802403F
:1003500080B400AF1D4B1B6C1C4A43F002031364B6
:100360001A4B1B6B194A43F004031363184B1B68A9
:10037000174A43F002031360154B1B6A144A43F0FB
:1003800002031362134B40F2E7321A85114B6322CA
:10039000DA62104B9B8B9BB20E4A43F060039BB218
:1003A00093830C4B1B8C9BB20A4A43F480739BB221
:1003B0001384084B1B889BB2064A43F001039BB28F
:1003C000138000BFBD4680BC704700BF00380240AC
:1003D000000802400004004080B400AF1D4B1B6CBD
:1003E0001C4A43F4002313641A4B1B6B194A43F055
:1003F00001031363184B1B68174A43F00203136091
:10040000154B1B6A144A43F008031362124B1B6816
:10041000114A43F0080313600F4B1B6A0E4A43F066
:10042000800313620D4B1B680D4AA2FB03235A0B7A
:100430000C4B92B21A810B4B9B899BB2094A43F435
:10044000005343F00C039BB2938100BFBD4680BCB8
:10045000704700BF0038024000000240000000204A
:10046000D34D6210004C004080B400AF044B1B68B9
:100470000133034A136000BFBD4680BC704700BF14
:100480001400002080B485B000AF7860084B1B6872
:10049000FB6000BF064B1A68FB68D31A7A689A4261
:1004A000F8D800BF00BF1437BD4680BC704700BFFE
:1004B0001400002080B500AF00F032F9114B1B682A
:1004C000114AA2FB03239B091846FFF7CBFE00F05D
:1004D0001DF8FFF7E9FEFFF72DFF1420FFF70CFFD3
:1004E0004FF47A70FFF7CEFF6420FFF705FF4FF45B
:1004F000FA60FFF7C7FFFFF70FFF41F28830FFF701
:10050000C1FFEAE700000020D34D621080B582B041
:1005100000AF134B1B6B124A43F0030313633B46BC
:1005200000221A605A604FF470633B600023BB7175
:1005300001233B7103237B713B461946094800F0B8
:1005400045F84FF470433B603B461946064800F0BF
:100550003DF800F00BF800BF0837BD4680BD00BF76
:1005600000380240000002400004024080B500AFA5
:100570004FF48071134800F0C5F84FF40071114832
:1005800000F0C0F84FF480610E4800F0BBF84FF463
:1005900000610C4800F0B6F84FF480510A4800F0B2
:1005A000B1F84FF40051084800F0ACF84FF4804126
:1005B000054800F0A7F84FF40041034800F0A2F806
:1005C00000BF80BD000002400004024080B487B03C
:1005D00000AF7860396000237B6100233B6100231A
:1005E000FB6000237B6176E001227B6902FA03F362
:1005F0003B613B681B683A691340FB60FA683B69E2
:100600009A4265D17B681A687B695B00032101FA15
:1006100003F3DB431A407B681A607B681A683B6807
:100620001B7919467B695B0001FA03F31A437B6867
:100630001A603B681B79012B03D03B681B79022BA6
:100640002ED17B689A687B695B00032101FA03F372
:10065000DB431A407B689A607B689A683B685B79E9
:1006600019467B695B0001FA03F31A437B689A60C1
:100670007B685A687B699BB2194601238B40DB4338
:100680001A407B685A607B685B683A6892791146C9
:100690007A6992B201FA02F292B21A437B685A6006
:1006A0007B68DA687B699BB25B00032101FA03F384
:1006B000DB431A407B68DA607B68DA683B68DB7989
:1006C00019467B695B0001FA03F31A437B68DA6021
:1006D0007B6901337B617B690F2B85D900BF00BF2C
:1006E0001C37BD4680BC704780B483B000AF7860D3
:1006F0000B467B807B687A881A8300BF0C37BD4627
:1007000080BC704780B483B000AF78600B467B80BC
:100710007B687A885A8300BF0C37BD4680BC70471F
:1007200080B500AF124B1B68114A43F00103136000
:100730000F4B00229A600E4B1B680D4A23F0847306
:1007400023F4803313600A4B0A4A5A60084B1B6833
:10075000074A23F480231360054B0022DA6000F07F
:100760000DF8054B4FF000629A6000BF80BD00BFDE
:10077000003802401030002400ED00E080B483B067
:1007800000AF00237B6000233B60424B1B68414A63
:1007900043F4803313603F4B1B6803F400333B602A
:1007A0007B6801337B603B68002B03D17B68B3F52A
:1007B000A04FF0D1374B1B6803F40033002B02D05D
:1007C00001233B6001E000233B603B68012B5CD1CF
:1007D000304B1B6C2F4A43F0805313642E4B1B6825
:1007E0002D4A43F4404313602A4B2A4A9B68936086
:1007F000284B9B68274A43F400439360254B9B6832
:10080000244A43F4A0539360224B244A5A60214B5C
:100810001B68204A43F08073136000BF1D4B1B68A8
:1008200003F00073002BF9D01B4B1B681A4A43F4EA
:100830008033136000BF184B5B6803F48033002BD8
:10084000F9D0154B1B68144A43F40033136000BF02
:10085000114B5B6803F40033002BF9D0104B40F2CE
:1008600005721A600B4B9B680A4A23F003039360DE
:10087000084B9B68074A43F00203936000BF054B97
:100880009B6803F00C03082BF9D100BF0C37BD4661
:1008900080BC70470038024000700040085A400792
:0408A000003C0240D6
:1008A4000095BA0A000000000000000001020304E1
:0408B4000607080922
:0400000508000000EF
:00000001FF
